:1000000014C026C025C024C023C022C021C020C0E7
:100010001FC01EC01DC01CC01BC01AC019C018C004
:1000200017C016C015C014C013C011241FBECFE5E1
:10003000D1E0DEBFCDBF10E0A0E6B0E0E6ECF1E03D
:1000400002C005900D92AE38B107D9F729D0B9C0DA
:10005000D7CF882329F0959A68BB949A94980895ED
:100060009598FACF1F93CF93DF93EB01682F80E031
:10007000F0DF8AE68A95F1F700C010E16881662317
:1000800069F0219681E0E5DF8AE68A95F1F700C004
:100090001150A1F7DF91CF911F91089560E2F2CF47
:1000A000CDB7DEB72B970FB6F894DEBF0FBECDBF2E
:1000B0008BE0E2E8F0E0DE01119601900D928A9566
:1000C000E1F78C9A8D9A8FEF87BB949895988FE380
:1000D0009CE90197F1F700C0000068E380E0B9DF18
:1000E0009AE69A95F1F700C06CE080E0B2DF2AE66C
:1000F0002A95F1F700C066E080E0ABDF8AE68A95DA
:10010000F1F700C061E080E0A4DF8FE99FE0019794
:10011000F1F700C0000060E670E080E8A3DF61E86E
:1001200070E080EC9FDF9FEF29E688E1915020404E
:100130008040E1F700C0000061E080E08ADF8FE9E5
:100140009FE00197F1F700C0000010E00AE0812F66
:10015000602F2BD0805D8983905D9A836DE670E07F
:1001600080E880DFBE016F5F7F4F80EC7BDF1F5F29
:100170009FEF29E688E1915020408040E1F700C0E0
:100180000000143621F761E080E063DF8FE99FE033
:100190000197F1F700C0000068E770E080E862DFD7
:1001A00061E870E080EC5EDFFFCF991B79E004C06E
:1001B000991F961708F0961B881F7A95C9F78095A6
:0601C0000895F894FFCF42
:1001C60054696D6572205374617274210052756EA4
:1001D6006E696E672E2E2E0054696D65732055501C
:0E01E60021003030207365636F6E647300007B
:00000001FF
