:1000000014C026C025C024C023C022C021C020C0E7
:100010001FC01EC01DC01CC01BC01AC019C018C004
:1000200017C016C015C014C013C011241FBECFE5E1
:10003000D1E0DEBFCDBF10E0A0E6B0E0E4E8F1E043
:1000400002C005900D92AA36B107D9F729D098C001
:10005000D7CF27E030E0482F50E0C69898B3FA0198
:10006000022E02C0F595E7950A94E2F76E2F6170B3
:1000700070E0FB0186E0EE0FFF1F8A95E1F79E2BF3
:1000800098BBC79AC7982150310938F70895CF9384
:10009000C62FC598DEDF8C2FDCDFC59ACF9108957F
:1000A000CDB7DEB72A970FB6F894DEBF0FBECDBF2F
:1000B0008AE0E0E6F0E0DE01119601900D928A956B
:1000C000E1F7BE9ABF9ABD9AC59A8E010F5F1F4F86
:1000D0007E012BE0E20EF11CF80161818081D7DF07
:1000E0000E5F1F4F0E151F05B9F78AE0A82EB12C21
:1000F000F12CE12C670118E0C601B5011AD0682F78
:10010000812FC5DF1150FFEFCF1ADF0A1111F4CF95
:100110002FEF84E39CE0215080409040E1F700C045
:100120000000EFEFEE1AFE0AFAE0EF16F10411F705
:10013000DFCF97FB072E16F4009406D077FD08D08A
:100140000BD007FC05D03EF4909581959F4F089504
:10015000709561957F4F0895AA1BBB1B51E107C0A5
:10016000AA1FBB1FA617B70710F0A61BB70B881F47
:10017000991F5A95A9F780959095BC01CD010895D6
:04018000F894FFCF21
:0A01840009FF0A010B070C010F0030
:00000001FF
