:1000000014C026C025C024C023C022C021C020C0E7
:100010001FC01EC01DC01CC01BC01AC019C018C004
:1000200017C016C015C014C013C011241FBECFE5E1
:10003000D1E0DEBFCDBF10E0A0E6B0E0EAE0F2E044
:1000400002C005900D92A038B107D9F729D0DBC0C6
:10005000D7CF8823B1F0959A88B38F706295607F6F
:10006000682B68BB82E08A95F1F700C0949A82E021
:100070008A95F1F700C0949882E08A95F1F700C064
:1000800008959598E9CFCF93DF93D82FC62F629527
:100090006F70DFDF6C2F6F708D2FDF91CF91D9CF15
:1000A0008C9A8D9A87B3806F87BB949895988FE3CD
:1000B0009CE90197F1F700C0000063E080E0C9DF30
:1000C000EFE0F7E23197F1F700C0000063E080E075
:1000D000C0DF87EC90E00197F1F700C0000063E01B
:1000E00080E0B7DF9AE69A95F1F700C062E080E021
:1000F000B0DFEAE6EA95F1F700C068E280E0C3DF2E
:10010000FAE6FA95F1F700C068E080E0BCDF2AE685
:100110002A95F1F700C061E080E0B5DF8FE99FE04C
:100120000197F1F700C0000066E080E0ACDF9AE6DE
:100130009A95F1F700C06CE080E0A5DFEAE6EA9569
:10014000F1F700C060E480E09EDFFAE6FA95F1F78F
:1001500000C0C0E6D0E000E710E0699181E093DFE5
:100160002AE62A95F1F700C00C171D07B1F7C0E089
:100170009FE0C92ED12C60E880E085DF8AE68A9571
:10018000F1F700C010E180E7E82E80E0F82EF701DB
:1001900060816623B1F1FFEFEF1AFF0A81E073DFA0
:1001A0002AE62A95F1F700C0115089F760EC80E04B
:1001B0006ADF8AE68A95F1F700C010E000E0760178
:1001C000EC1AF10860E0C01729F061E0E016F106D2
:1001D00009F060E281E057DF9AE69A95F1F700C0F6
:1001E0000F5F1F4F0031110569F7CF5FCF70EFE749
:1001F000FAE126E0E150F0402040E1F700C00000C5
:0A020000BACF60E2CBCFF894FFCF35
:10020A00000A1F1F0E04000000000A00110E000061
:10021A003462697420434752414D2044656D6F0032
:00000001FF
